:100000000C945E000C9486000C9486000C94860080
:100010000C9486000C9486000C9486000C94860048
:100020000C9486000C9486000C9486000C941E039D
:100030000C9486000C9486000C9486000C94860028
:100040000C94D4020C9486000C94A2020C947C02B2
:100050000C9486000C9486000C9486000C94860008
:100060000C9486000C948600000000080002010039
:100070000003040700000000000000000000000072
:10008000250028002B0000000000240027002A0083
:10009000040404040404040402020202020203032E
:1000A0000303030301020408102040800102040836
:1000B0001020010204081020DA03320711241FBEA9
:1000C000CFEFD8E0DEBFCDBF11E0A0E0B1E0E4E4C7
:1000D000F4E102C005900D92A636B107D9F722E0EF
:1000E000A6E6B1E001C01D92A334B207E1F710E02B
:1000F000CDE5D0E004C02197FE010E941D08CC355B
:10010000D107C9F70E946A040C94150A0C940000E8
:100110000895AF92BF92CF92DF92EF92FF920F932A
:100120001F93CF93DF936C017B018B01040F151F8D
:10013000EB015E01AE18BF08C017D10759F06991F5
:10014000D601ED91FC910190F081E02DC601099559
:10015000892B79F7C501DF91CF911F910F91FF9006
:10016000EF90DF90CF90BF90AF900895FC01538D3A
:10017000448D252F30E0842F90E0821B930B541781
:1001800010F0CF96089501970895FC01918D828D0E
:10019000981761F0A28DAE0FBF2FB11D5D968C91A7
:1001A000928D9F5F9F73928F90E008958FEF9FEFE6
:1001B00008952FB7F8948091700190917101A091EA
:1001C0007201B09173012FBF80937C0190937D01E8
:1001D000A0937E01B0937F0184E791E00E94C50067
:1001E00097FF26C02FB7F89480917001909171010C
:1001F000A0917201B09173012FBF40917C01509189
:100200007D0160917E0170917F01841B950BA60B8F
:10021000B70B409178015091790160917A0170910A
:100220007B0184179507A607B707B0F28FEF9FEF02
:100230000895FC01918D828D981731F0828DE80F21
:10024000F11D858D90E008958FEF9FEF0895FC01DB
:10025000918D228D892F90E0805C9F4F821B9109A8
:100260008F739927089584E791E00E94270121E088
:10027000892B09F420E0822F089580E090E0892BFB
:1002800029F00E94330181110C9400000895FC01B3
:10029000A48DA80FB92FB11DA35ABF4F2C91848DE7
:1002A00090E001968F739927848FA689B7892C9344
:1002B000A089B1898C91837080648C93938D848D97
:1002C000981306C00288F389E02D80818F7D80839A
:1002D0000895EF92FF920F931F93CF93DF93EC015A
:1002E00081E0888F9B8D8C8D98131AC0E889F989DD
:1002F000808185FF15C09FB7F894EE89FF896083E0
:10030000E889F98980818370806480839FBF81E060
:1003100090E0DF91CF911F910F91FF90EF900895A2
:10032000F62E0B8D10E00F5F1F4F0F731127E02E7D
:100330008C8D8E110CC00FB607FCFACFE889F989B5
:10034000808185FFF5CFCE010E944701F1CFEB8D73
:10035000EC0FFD2FF11DE35AFF4FF0829FB7F89489
:100360000B8FEA89FB8980818062CFCFCF93DF93A7
:10037000EC01888D8823B9F0AA89BB89E889F989BD
:100380008C9185FD03C0808186FD0DC00FB607FCF2
:10039000F7CF8C9185FFF2CF808185FFEDCFCE0125
:1003A0000E944701E9CFDF91CF91089590E0FC01D1
:1003B000E859FF4F2491FC01EC55FF4F3491FC01AB
:1003C000E057FF4FE491EE23C9F0222339F02330A8
:1003D00001F1A8F4213019F1223029F1F0E0EE0FFB
:1003E000FF1FE458FF4FA591B4918FB7F894EC919B
:1003F000611126C030953E233C938FBF089527306E
:10040000A9F02830C9F0243049F7809180008F7D11
:1004100003C0809180008F7780938000DFCF84B508
:100420008F7784BDDBCF84B58F7DFBCF8091B0000B
:100430008F778093B000D2CF8091B0008F7DF9CFBD
:100440003E2BDACF3FB7F894809168019091690113
:10045000A0916A01B0916B0126B5A89B05C02F3F02
:1004600019F00196A11DB11D3FBFBA2FA92F982FDA
:100470008827BC01CD01620F711D811D911D42E0D5
:10048000660F771F881F991F4A95D1F70895FC01C1
:1004900001900020E9F73197AF01481B590BBC01CF
:1004A00084E791E00C9489000F931F93CF93DF931F
:1004B000EC0188819981009759F02A813B812617A8
:1004C000370730F081E0DF91CF911F910F910895B0
:1004D0008B016F5F7F4F0E944809009759F0998305
:1004E00088831B830A832C813D81232B59F7FC01D0
:1004F0001082E8CF80E0E7CF1F920F920FB60F92E5
:1005000011242F933F934F935F936F937F938F9318
:100510009F93AF93BF93EF93FF9384E791E00E9483
:100520004701FF91EF91BF91AF919F918F917F9183
:100530006F915F914F913F912F910F900FBE0F9050
:100540001F9018951F920F920FB60F9211242F93A0
:100550008F939F93EF93FF93E0918401F091850136
:100560008081E0918A01F0918B0182FD1BC0908116
:1005700080918D018F5F8F7320918E01821741F0E2
:10058000E0918D01F0E0EC58FE4F958F80938D0146
:10059000FF91EF919F918F912F910F900FBE0F9030
:1005A0001F9018958081F4CF1F920F920FB60F9273
:1005B00011242F933F938F939F93AF93BF93809179
:1005C000700190917101A0917201B091730130910D
:1005D000670123E0230F2D3758F50196A11DB11DAA
:1005E000209367018093700190937101A093720131
:1005F000B09373018091680190916901A0916A01A3
:10060000B0916B010196A11DB11D8093680190937B
:100610006901A0936A01B0936B01BF91AF919F9163
:100620008F913F912F910F900FBE0F901F901895B3
:1006300026E8230F0296A11DB11DD2CF1F920F9263
:100640000FB60F9211242F933F934F935F936F93A5
:100650007F938F939F93AF93BF93CF93DF93EF934A
:10066000FF9380916601C0913502D0E087FF24C0DE
:100670001092850010928400809166018F5F8093B4
:10068000660180916601082E000C990B8C179D075E
:1006900024F4809166018C30C4F1809184009091A3
:1006A0008500049680349C4908F47AC080918400C7
:1006B00090918500049676C080916601082E000C0A
:1006C000990B8C179D07C4F6E09166018E2FEE0FF3
:1006D000990BFC01EE0FFF1FE80FF91FEF5EFD4FB6
:1006E000808186FFC9CFE09166018E2FEE0F990BB6
:1006F000FC01EE0FFF1FE80FF91FEF5EFD4F808139
:1007000060E08F730E94D601B7CF209184003091B2
:100710008500E09166018E2FEE0F990BFC01EE0F24
:10072000FF1FE80FF91FEF5EFD4F81819281820F5D
:10073000931F9093890080938800E09166018E2F2B
:10074000EE0F990BFC01EE0FFF1FE80FF91FEF5E94
:10075000FD4F808186FF11C0E09166018E2FEE0F64
:10076000990BFC01EE0FFF1FE80FF91FEF5EFD4F25
:10077000808161E08F730E94D601FF91EF91DF913C
:10078000CF91BF91AF919F918F917F916F915F9129
:100790004F913F912F910F900FBE0F901F90189582
:1007A00080E49CE990938900809388008FEF809388
:1007B0006601E3CF109277011092760188EE93E004
:1007C000A0E0B0E08093780190937901A0937A0142
:1007D000B0937B018AE091E090937501809374015E
:1007E00085EC90E0909381018093800184EC90E00F
:1007F000909383018093820180EC90E09093850137
:100800008093840181EC90E090938701809386012E
:1008100082EC90E0909389018093880186EC90E0CF
:1008200090938B0180938A0110928D0110928E011A
:1008300010928F0110929001809135028C30E8F572
:1008400091E0980F9093350280933C0290E0FC0178
:10085000EE0FFF1FE80FF91FEF5EFD4F88EB9BE0E7
:1008600092838183109237021092360210923902DD
:100870001092380210923B0210923A0270E060E04F
:1008800086E392E00E9454022091360230913702B2
:10089000811117C02115310519F0C9010E94BF0847
:1008A000109237021092360210923B0210923A02D6
:1008B000109239021092380208958FEF80933C0213
:1008C000D1CF10923B0210923A026FE371E0C9015E
:1008D0000C940E0ACF93DF93CDB7DEB7A3970FB674
:1008E000F894DEBF0FBECDBF789484B5826084BD1E
:1008F00084B5816084BD85B5826085BD85B5816024
:1009000085BD80916E00816080936E0010928100A1
:10091000809181008260809381008091810081605C
:10092000809381008091800081608093800080911D
:10093000B10084608093B1008091B00081608093A9
:10094000B00080917A00846080937A0080917A0070
:10095000826080937A0080917A00816080937A002F
:1009600080917A00806880937A001092C100E091B3
:100970008401F091850182E08083E0918001F09113
:1009800081011082E0918201F09183018FEC8083DC
:1009900010928C01E0918801F091890186E08083BA
:1009A000E0918601F0918701808180618083E091F0
:1009B0008601F0918701808188608083E0918601C3
:1009C000F0918701808180688083E0918601F091B9
:1009D000870180818F7D808380913C028C3008F07C
:1009E00068C0EDEAF0E02491E9E9F0E08491882321
:1009F00099F090E0880F991FFC01EA57FF4FA591ED
:100A0000B491FC01E458FF4F859194918FB7F8940D
:100A1000EC91E22BEC938FBF80913C02282F30E0C9
:100A2000F901EE0FFF1FE20FF31FEF5EFD4F908104
:100A3000907C9960908310923D0210923E022CE0CF
:100A4000622F0E941108829FB001112430E020E043
:100A5000AB01420F531FFA01EE0FFF1FE40FF51F0A
:100A6000EF5EFD4F908196FD16C02F5F3F4F2C30FB
:100A7000310571F781110FC01092800082E08093E0
:100A800081001092850010928400B19A80916F00CD
:100A9000826080936F00E0913C028E2F90E0FC0119
:100AA000EE0FFF1FE80FF91FEF5EFD4F808180649E
:100AB000808388E191E00E9447028DE391E00E94EB
:100AC00047028AE0882E912CA12CB12C08E5202E1B
:100AD00002E0302E25E420937C0080917A0080642F
:100AE00080937A0080917A0086FDFCCF8091780017
:100AF0008091790084E791E00E9427011816190679
:100B00000CF07AC01A8219821C821B821E821D82FE
:100B100070E060E0CE0101960E94540229813A8182
:100B200081112EC02115310519F0C9010E94BF089D
:100B30001A8219821E821D821C821B820E94D90089
:100B400097FD26C08A30910519F18AA31BA20D8159
:100B50001E810F5F1F4FB801CE0101960E94540203
:100B6000882361F329813A818D819E81BE016E5D6A
:100B70007F4F820F931F0E940E0A1E830D83DECFCC
:100B80001E821D826FE371E0C9010E940E0AD6CF5A
:100B90008091360290913702009709F421C1698152
:100BA0007A816115710509F419C14091380250919B
:100BB00039022D813E814217530708F40FC10E946C
:100BC0000E0A8D819E8190933B0280933A021E8291
:100BD0001D8289819A81009711F00E94BF0880913F
:100BE000360290913702009709F411C10E943B0729
:100BF00070936F0160936E0180916E0190916F010F
:100C000020916C0130916D018217930709F4B5C0F2
:100C100090936D0180936C01853B91050CF011C19F
:100C200080E491E00E944702C0906C01D0906D0179
:100C30000D2C000CEE08FF08F7FEEDC06DE284E716
:100C400091E00E94690122273327A9012C193D094F
:100C50004E095F0919A28E010F5D1F4FCA01B9012C
:100C6000A50194010E94E007605DF80162938F0185
:100C7000211531054105510589F70115110519F0B7
:100C8000C8010E9447028DE391E00E944702A091B3
:100C90006C01B0916D01A032F2E0BF07D4F58091F4
:100CA0003D02E8E8CE2ED12CC81AD10887FDD39496
:100CB000CC0CDD1CCC0CDD1C0D2C000CEE08FF0850
:100CC00080913E029101281B310987FD3395220F47
:100CD000331F220F331F032E000C440B550B2C190E
:100CE0003D094E095F09A53BB10514F0A4EBB0E046
:100CF000B7FF02C0B0E0A0E00E94A10724EB30E003
:100D000040E050E00E947707C20ED31EE41EF51E9D
:100D1000D60120913C022C3080F580913D0248E8BC
:100D200050E0481B510987FD5395CA01880F991F50
:100D3000880F991FA817B90784F080913E02F1012E
:100D4000E81BF10987FDF395CF01880F991F880FE4
:100D5000991FA817B9070CF4CD010297880F991FA6
:100D60004FB7F89430E0F901EE0FFF1FE20FF31FC9
:100D7000EF5EFD4F928381834FBF0E9422022B01C1
:100D80003C0188ECC82ED12CE12CF12C0E942202CF
:100D90006419750986099709683E734081059105B4
:100DA000A8F3F1E0CF1AD108E108F10828EE420ECD
:100DB00023E0521E611C711CC114D104E104F10432
:100DC00029F780E090E0892B09F484CE0E9433015A
:100DD000882309F47BCE0E94000078CE0E94BF08D1
:100DE00089819A8190933702809336028B819C810E
:100DF00090933902809338028D819E8190933B02BB
:100E000080933A021A8219821C821B82E0CE60E033
:100E100070E0CB01EDCEA701960119A28E010F5D06
:100E20001F4FCA01B901A50194010E94E007605D4E
:100E3000F80162938F01211531054105510589F7AC
:100E40001CCF10926D0110926C0110926F011092E4
:100E50006E0185E591E00E9447028DE391E00E94DA
:100E600047028BCF8091360290913702009711F0A4
:100E70000C94BF0808951F93FC0199278827BC0193
:100E8000E89411911032E9F3193010F01E30C8F3D4
:100E90001B3251F01D3249F4689406C00E9462076B
:100EA000610F711D811D911D119110531A30B0F306
:100EB0003EF490958095709561957F4F8F4F9F4F31
:100EC0001F910895592F482F372F262F660F771F10
:100ED000881F991F660F771F881F991F620F731F46
:100EE000841F951F660F771F881F991F0895052E71
:100EF00097FB1EF400940E948E0757FD07D00E94B6
:100F0000E00707FC03D04EF40C948E0750954095F3
:100F1000309521953F4F4F4F5F4F089590958095A5
:100F2000709561957F4F8F4F9F4F08950E940208E3
:100F3000A59F900DB49F900DA49F800D911D11242D
:100F40000895B7FF0C9496070E949607821B930B97
:100F500008952F923F924F925F926F927F928F925D
:100F60009F92AF92BF92CF92DF92EF92FF920F9338
:100F70001F93CF93DF93CDB7DEB7CA1BDB0B0FB642
:100F8000F894DEBF0FBECDBF09942A8839884888FF
:100F90005F846E847D848C849B84AA84B984C88495
:100FA000DF80EE80FD800C811B81AA81B981CE0F8C
:100FB000D11D0FB6F894DEBF0FBECDBFED01089571
:100FC000A1E21A2EAA1BBB1BFD010DC0AA1FBB1F4D
:100FD000EE1FFF1FA217B307E407F50720F0A21BBF
:100FE000B30BE40BF50B661F771F881F991F1A942C
:100FF00069F760957095809590959B01AC01BD0156
:10100000CF010895A29FB001B39FC001A39F700DAF
:10101000811D1124911DB29F700D811D1124911D00
:101020000895991B79E004C0991F961708F0961B44
:10103000881F7A95C9F780950895EE0FFF1F0590D8
:10104000F491E02D09940F931F93CF93DF93823097
:10105000910510F482E090E0E0914102F0914202AB
:1010600030E020E0B0E0A0E0309799F421153105A0
:1010700009F44AC0281B390B24303105D8F58A8180
:101080009B816115710589F1FB0193838283FE01C8
:1010900011C0408151810281138148175907E0F046
:1010A0004817590799F4109761F012960C9312970C
:1010B00013961C933296CF01DF91CF911F910F9120
:1010C00008950093410210934202F4CF2115310597
:1010D00051F04217530738F0A901DB019A01BD0115
:1010E000DF01F801C1CFEF01F9CF90934202809365
:1010F0004102CDCFFE01E20FF31F81939193225065
:10110000310939832883D7CF20913F0230914002A3
:10111000232B41F4209102013091030130934002CE
:1011200020933F02209100013091010121153105EA
:1011300041F42DB73EB74091040150910501241BA5
:10114000350BE0913F02F0914002E217F307A0F463
:101150002E1B3F0B2817390778F0AC014E5F5F4F0D
:101160002417350748F04E0F5F1F509340024093FD
:101170003F02819391939FCFF0E0E0E09CCFCF932B
:10118000DF930097E9F0FC01329713821282A0915D
:101190004102B0914202ED0130E020E01097A1F44D
:1011A00020813181820F931F20913F0230914002B4
:1011B0002817390709F061C0F0934002E0933F021D
:1011C000DF91CF910895EA01CE17DF07E8F54A8154
:1011D0005B819E0141155105B1F7E901FB83EA836B
:1011E00049915991C40FD51FEC17FD0761F4808117
:1011F00091810296840F951FE901998388838281EA
:1012000093819B838A83F0E0E0E012968D919C911C
:1012100013970097B9F52D913C911197CD01029646
:10122000820F931F20913F02309140022817390707
:1012300039F6309751F51092420210924102B09364
:101240004002A0933F02BCCFD383C283408151812F
:10125000840F951FC817D90761F44E5F5F4F8881CF
:101260009981480F591F518340838A819B819383C1
:1012700082832115310509F0B0CFF0934202E0934B
:1012800041029ECFFD01DC01C0CF13821282D7CF75
:10129000B0E0A0E0EEE4F9E00C94AB078C0100971D
:1012A00051F4CB010E9423088C01C801CDB7DEB7F1
:1012B000E0E10C94C707FC01E60FF71F9C012250E8
:1012C0003109E217F30708F49DC0D901CD91DC91F3
:1012D0001197C617D70798F0C530D10530F3CE0166
:1012E00004978617970708F3C61BD70B2297C1935D
:1012F000D1936D937C93CF010E94BF08D6CF5B0141
:10130000AC1ABD0A4C018C0E9D1EA0914102B091F9
:101310004202512C412CF12CE12C109731F5809197
:101320003F02909140028815990509F05CC046166D
:10133000570608F058C08091000190910101009774
:1013400041F48DB79EB74091040150910501841B73
:10135000950BE817F90708F055C0F0934002E093A9
:101360003F02F90171836083A0CF8D919C91119709
:1013700012966C90129713967C901397A815B90546
:1013800059F56C0142E0C40ED11CCA14DB0420F1F3
:10139000AC014A195B09DA011296159780F0628256
:1013A000738251834083D9016D937C93E114F104DE
:1013B00071F0D7011396FC93EE93129776CF229695
:1013C0008C0F9D1FF90191838083F301EFCFF09380
:1013D0004202E093410269CF4816590608F42C01F5
:1013E0007D01D3019ACFCB010E9423087C01009795
:1013F00049F0AE01B8010E94050AC8010E94BF0869
:10140000870153CF10E000E050CFFB01DC0102C0A8
:1014100001900D9241505040D8F70895FB01DC0136
:1014200001900D920020E1F7089510E0CDE5D0E0A5
:1014300004C0FE010E941D082196CE35D107C9F7D0
:04144000F894FFCF4E
:101444000000430280000000000069018900B6002A
:10145400B6012701C50019014A616BC48520706F6C
:101464007A79636AC49920736572776120636863CB
:1014740065737A20757374617769C487000D0A00F7
:1014840057796272616E6120706F7A79636A612044
:10149400746F3A200042C582C499646E6120706FF3
:0614A4007A79636A610021
:00000001FF
