:020000040000FA
:100000000C945E000C9486000C9486000C94860080
:100010000C9486000C9486000C9486000C94860048
:100020000C9486000C9486000C9486000C94860038
:100030000C9486000C9486000C9486000C94860028
:100040000C94DC030C9486000C94AA030C94840397
:100050000C9486000C9486000C9486000C94860008
:100060000C9486000C948600000000080002010039
:100070000003040700000000000000000000000072
:10008000250028002B0000000000240027002A0083
:10009000040404040404040402020202020203032E
:1000A0000303030301020408102040800102040836
:1000B00010200102040810202604FE0511241FBE92
:1000C000CFEFD8E0DEBFCDBF22E0AAE8B1E001C0AB
:1000D0001D92AB33B207E1F711E0A0E0B1E0EEE82A
:1000E000F0E102C005900D92AA38B107D9F710E0EF
:1000F000CDE5D0E004C02197FE010E943906CC3541
:10010000D107C9F70E9461040C943A080C940000CE
:1001100090E0FC01EC55FF4F249180579F4FFC016C
:100120008491882399F090E0880F991FFC01EA5789
:10013000FF4FA591B491FC01E458FF4F8591949134
:100140008FB7F894EC91E22BEC938FBF089508954C
:10015000AF92BF92CF92DF92EF92FF920F931F93D5
:10016000CF93DF936C017B018B01040F151FEB0113
:100170005E01AE18BF08C017D10759F06991D601CA
:10018000ED91FC910190F081E02DC6010995892B3C
:1001900079F7C501DF91CF911F910F91FF90EF90FB
:1001A000DF90CF90BF90AF900895FC01538D448DA8
:1001B000252F30E0842F90E0821B930B541710F012
:1001C000CF96089501970895FC01918D828D98171F
:1001D00061F0A28DAE0FBF2FB11D5D968C91928DF7
:1001E0009F5F9F73928F90E008958FEF9FEF089528
:1001F0002FB7F8948091900190919101A091920174
:10020000B09193012FBF80939C0190939D01A09387
:100210009E01B0939F0184E991E00E94E40097FF62
:1002200026C02FB7F8948091900190919101A091F0
:100230009201B09193012FBF40919C0150919D017B
:1002400060919E0170919F01841B950BA60BB70BCB
:10025000409198015091990160919A0170919B0190
:1002600084179507A607B707B0F28FEF9FEF0895A1
:10027000FC01918D828D981731F0828DE80FF11D70
:10028000858D90E008958FEF9FEF0895FC01918D8B
:10029000228D892F90E0805C9F4F821B91098F7384
:1002A0009927089584E991E00E94460121E0892B75
:1002B00009F420E0822F089580E090E0892B29F056
:1002C0000E94520181110C9400000895FC01A48D3C
:1002D000A80FB92FB11DA35ABF4F2C91848D90E068
:1002E00001968F739927848FA689B7892C93A0894B
:1002F000B1898C91837080648C93938D848D9813D5
:1003000006C00288F389E02D80818F7D8083089567
:10031000EF92FF920F931F93CF93DF93EC0181E055
:10032000888F9B8D8C8D98131AC0E889F9898081FC
:1003300085FF15C09FB7F894EE89FF896083E8892F
:10034000F98980818370806480839FBF81E090E021
:10035000DF91CF911F910F91FF90EF900895F62EAE
:100360000B8D10E00F5F1F4F0F731127E02E8C8D48
:100370008E110CC00FB607FCFACFE889F98980818D
:1003800085FFF5CFCE010E946601F1CFEB8DEC0F1A
:10039000FD2FF11DE35AFF4FF0829FB7F8940B8FAA
:1003A000EA89FB8980818062CFCFCF93DF93EC0114
:1003B000888D8823B9F0AA89BB89E889F9898C914D
:1003C00085FD03C0808186FD0DC00FB607FCF7CF09
:1003D0008C9185FFF2CF808185FFEDCFCE010E9409
:1003E0006601E9CFDF91CF91089590E0FC01E859D3
:1003F000FF4F2491FC01EC55FF4F3491FC01E05775
:10040000FF4FE491EE23C9F0222339F0233001F1AC
:10041000A8F4213019F1223029F1F0E0EE0FFF1F8E
:10042000E458FF4FA591B4918FB7F894EC91611106
:1004300026C030953E233C938FBF08952730A9F006
:100440002830C9F0243049F7809180008F7D03C0A7
:10045000809180008F7780938000DFCF84B58F7785
:1004600084BDDBCF84B58F7DFBCF8091B0008F77CB
:100470008093B000D2CF8091B0008F7DF9CF3E2B1A
:10048000DACF3FB7F89480918B0190918C01A091C5
:100490008D01B0918E0126B5A89B05C02F3F19F0A4
:1004A0000196A11DB11D3FBFBA2FA92F982F8827F4
:1004B000BC01CD01620F711D811D911D42E0660FCF
:1004C000771F881F991F4A95D1F708958F929F92A1
:1004D000AF92BF92CF92DF92EF92FF924B015C01FD
:1004E0000E9441026B017C010E9441026C197D094E
:1004F0008E099F09683E734081059105A8F321E0AC
:10050000821A9108A108B10888EEC80E83E0D81EAF
:10051000E11CF11C81149104A104B10429F7FF909E
:10052000EF90DF90CF90BF90AF909F908F90089505
:1005300042E050E068E171E084E991E00C94A800A9
:10054000CF93DF93FC0101900020E9F73197AF01D1
:10055000481B590BBC0184E991E00E94A800EC0102
:100560000E9498028C0F9D1FDF91CF910895CF9329
:10057000DF93FC01448155816081718184E991E0C0
:100580000E94A800EC010E9498028C0F9D1FDF9131
:10059000CF9108952091350230913602232B39F402
:1005A00021E0FC018081882361F020E00AC0BC01C9
:1005B00080913102909132020E942A0821E0892B19
:1005C000A1F7822F0895CF93DF93EC018881998161
:1005D000009711F00E94DB06198218821D821C828E
:1005E0001B821A82DF91CF910895FC018081918155
:1005F000009711F00C94DB0608950F931F93CF938F
:10060000DF93EC0188819981009759F02A813B8121
:100610002617370730F081E0DF91CF911F910F91BE
:1006200008958B016F5F7F4F0E946407009759F018
:10063000998388831B830A832C813D81232B59F75F
:10064000FC011082E8CF80E0E7CFEF92FF920F939A
:100650001F93CF93DF936115710541F480E0DF9123
:10066000CF911F910F91FF90EF9008954115510583
:10067000B1F07B01EC010C811D81040F151FB80145
:100680000E94FD02882351F3288139818C819D814C
:10069000B701820F931F0E9433081D830C8381E0F2
:1006A000DECFCF93DF93EC0141E050E06BE171E0EE
:1006B0000E942503811103C0CE010E94E302CE01F6
:1006C000DF91CF910895EF92FF920F931F93CF93F5
:1006D000DF93EC017B018A01BA010E94FD028111C6
:1006E0000BC0CE010E94E302CE01DF91CF911F919A
:1006F0000F91FF90EF9008951D830C83B7018881BF
:1007000099810E943308F0CF1F920F920FB60F927B
:1007100011242F933F934F935F936F937F938F9306
:100720009F93AF93BF93EF93FF9384E991E00E946F
:100730006601FF91EF91BF91AF919F918F917F9152
:100740006F915F914F913F912F910F900FBE0F903E
:100750001F9018951F920F920FB60F9211242F938E
:100760008F939F93EF93FF93E091A401F091A501E4
:100770008081E091AA01F091AB0182FD1BC09081C4
:100780008091AD018F5F8F732091AE01821741F090
:10079000E091AD01F0E0EC56FE4F958F8093AD01F6
:1007A000FF91EF919F918F912F910F900FBE0F901E
:1007B0001F9018958081F4CF1F920F920FB60F9261
:1007C00011242F933F938F939F93AF93BF93809167
:1007D000900190919101A0919201B091930130917B
:1007E0008A0123E0230F2D3758F50196A11DB11D75
:1007F00020938A018093900190939101A09392019C
:10080000B093930180918B0190918C01A0918D0107
:10081000B0918E010196A11DB11D80938B01909323
:100820008C01A0938D01B0938E01BF91AF919F91E8
:100830008F913F912F910F900FBE0F901F901895A1
:1008400026E8230F0296A11DB11DD2CFE4E9F1E005
:100850001382128288EE93E0A0E0B0E08483958357
:10086000A683B7838AE091E09183808385EC90E052
:100870009587848784EC90E09787868780EC90E06A
:10088000918B808B81EC90E0938B828B82EC90E05B
:10089000958B848B86EC90E0978B868B118E128ED5
:1008A000138E148EE1E3F2E0118210821382128221
:1008B0001582148250E040E06AE171E0CF010C94AF
:1008C0006303CF93DF93CDB7DEB728970FB6F894C5
:1008D000DEBF0FBECDBF789484B5826084BD84B581
:1008E000816084BD85B5826085BD85B5816085BD2B
:1008F00080916E00816080936E00109281008091E3
:10090000810082608093810080918100816080936A
:100910008100809180008160809380008091B1008F
:1009200084608093B1008091B00081608093B000BA
:1009300080917A00846080937A0080917A0082604E
:1009400080937A0080917A00816080937A00809110
:100950007A00806880937A001092C100E091A4012F
:10096000F091A50182E08083E091A001F091A101C6
:100970001082E091A201F091A3018FEC808310928C
:10098000AC01E091A801F091A90186E08083E0919B
:10099000A601F091A701808180618083E091A6018A
:1009A000F091A701808188608083E091A601F09199
:1009B000A701808180688083E091A601F091A70162
:1009C00080818F7D808388E00E94880089E00E947A
:1009D000880060E088E00E94F50160E089E00E9404
:1009E000F5018DE191E00E94A00200E010E084E9B1
:1009F00091E00E944601181619060CF0D5C01A8223
:100A000019821C821B821E821D8250E040E06AE136
:100A100071E0CE0101960E9463030E94F80097FDE9
:100A20000FC08A30910561F08F83188641E050E055
:100A3000BE01695F7F4FCE0101960E942503EDCF75
:100A40008091310290913202009709F4BBC0698114
:100A50007A816115710509F4B3C040913302509158
:100A600034022D813E814217530708F4A9C00E9429
:100A700033088D819E8190933602809335021E82C9
:100A80001D82CE0101960E94F5028EE391E00E9444
:100A9000CA0281110EC087E491E00E94CA0281114E
:100AA00008C08FE491E00E94A0028DE191E00E94D5
:100AB000A00287E491E00E94CA028823D9F18091C4
:100AC0008F01811196C061E088E00E94F5011A82D1
:100AD00019821C821B821E821D8246E150E062E761
:100AE00071E0CE0101960E9463034091350250915E
:100AF00036026091310270913202CE0101960E945D
:100B00002503811104C0CE0101960E94E302CE01AB
:100B100001960E9451030E94B702CE0101960E94E5
:100B2000F50268EE73E080E090E00E94660281E0EA
:100B300080938F018EE391E00E94CA028823A1F185
:100B400061E089E00E94F5011A8219821C821B82F1
:100B50001E821D8246E150E062E771E0CE010196FF
:100B60000E94630340913502509136026091310238
:100B700070913202CE0101960E942503811104C0BA
:100B8000CE0101960E94E302CE0101960E9451031C
:100B90000E94B702CE0101960E94F50268EB7BE04D
:100BA00080E090E00E9466020115110509F41FCF54
:100BB0000E945201882309F41ACF0E94000017CF27
:100BC0000E94DB0689819A819093320280933102E0
:100BD0008B819C8190933402809333028D819E811E
:100BE00090933602809335021A8219821C821B82EE
:100BF00046CF60E088E00E94F5019CCF81E392E05F
:100C00000C94F5022F923F924F925F926F927F92D7
:100C10008F929F92AF92BF92CF92DF92EF92FF920C
:100C20000F931F93CF93DF93CDB7DEB7CA1BDB0BB8
:100C30000FB6F894DEBF0FBECDBF09942A8839885D
:100C400048885F846E847D848C849B84AA84B98464
:100C5000C884DF80EE80FD800C811B81AA81B98170
:100C6000CE0FD11D0FB6F894DEBF0FBECDBFED0184
:100C70000895EE0FFF1F0590F491E02D09940F9356
:100C80001F93CF93DF938230910510F482E090E0C0
:100C9000E0913902F0913A0230E020E0B0E0A0E0CB
:100CA000309799F42115310509F44AC0281B390BF6
:100CB00024303105D8F58A819B816115710589F150
:100CC000FB0193838283FE0111C040815181028127
:100CD000138148175907E0F04817590799F41097FE
:100CE00061F012960C93129713961C933296CF01D3
:100CF000DF91CF911F910F910895009339021093C6
:100D00003A02F4CF2115310551F04217530738F05C
:100D1000A901DB019A01BD01DF01F801C1CFEF019B
:100D2000F9CF90933A0280933902CDCFFE01E20FC2
:100D3000F31F819391932250310939832883D7CFB0
:100D40002091370230913802232B41F42091020187
:100D50003091030130933802209337022091000133
:100D6000309101012115310541F42DB73EB7409175
:100D7000040150910501241B350BE0913702F091DD
:100D80003802E217F307A0F42E1B3F0B2817390790
:100D900078F0AC014E5F5F4F2417350748F04E0FD7
:100DA0005F1F5093380240933702819391939FCFF6
:100DB000F0E0E0E09CCFCF93DF930097E9F0FC01F7
:100DC000329713821282A0913902B0913A02ED015A
:100DD00030E020E01097A1F420813181820F931F31
:100DE00020913702309138022817390709F061C085
:100DF000F0933802E0933702DF91CF910895EA0132
:100E0000CE17DF07E8F54A815B819E014115510548
:100E1000B1F7E901FB83EA8349915991C40FD51FCA
:100E2000EC17FD0761F4808191810296840F951F74
:100E3000E90199838883828193819B838A83F0E08F
:100E4000E0E012968D919C9113970097B9F52D9142
:100E50003C911197CD010296820F931F209137028A
:100E6000309138022817390739F6309751F510922A
:100E70003A0210923902B0933802A0933702BCCFE5
:100E8000D383C28340815181840F951FC817D9072E
:100E900061F44E5F5F4F88819981480F591F5183DC
:100EA00040838A819B81938382832115310509F0D8
:100EB000B0CFF0933A02E09339029ECFFD01DC01FE
:100EC000C0CF13821282D7CFB0E0A0E0EAE6F7E00D
:100ED0000C9404068C01009751F4CB010E943F064C
:100EE0008C01C801CDB7DEB7E0E10C942006FC010F
:100EF000E60FF71F9C0122503109E217F30708F4AF
:100F00009DC0D901CD91DC911197C617D70798F0F4
:100F1000C530D10530F3CE0104978617970708F343
:100F2000C61BD70B2297C193D1936D937C93CF01AE
:100F30000E94DB06D6CF5B01AC1ABD0A4C018C0EB9
:100F40009D1EA0913902B0913A02512C412CF12CF6
:100F5000E12C109731F58091370290913802881575
:100F6000990509F05CC04616570608F058C08091F4
:100F7000000190910101009741F48DB79EB7409117
:100F8000040150910501841B950BE817F90708F03F
:100F900055C0F0933802E0933702F9017183608302
:100FA000A0CF8D919C91119712966C9012971396E9
:100FB0007C901397A815B90559F56C0142E0C40E51
:100FC000D11CCA14DB0420F1AC014A195B09DA0117
:100FD0001296159780F06282738251834083D90103
:100FE0006D937C93E114F10471F0D7011396FC9397
:100FF000EE93129776CF22968C0F9D1FF901918365
:101000008083F301EFCFF0933A02E093390269CF86
:101010004816590608F42C017D01D3019ACFCB0163
:101020000E943F067C01009749F0AE01B8010E9482
:101030002108C8010E94DB06870153CF10E000E0C1
:1010400050CFFB01DC0102C001900D924150504095
:10105000D8F70895FB01DC018D91019080190110F2
:10106000D9F3990B0895FB01DC0101900D9200204A
:10107000E1F7089510E0CDE5D0E004C0FE010E9444
:1010800039062196CE35D107C9F7F894FFCF000075
:101090003B028000000000008801A800D500D501B7
:1010A0004601E40038010D0A002E004A616BC48538
:1010B0002064696F64C4992063686365737A2070E3
:1010C000727A657374617769C4873F00637A657269
:1010D000776F6E61007A69656C6F6E610042C582E0
:1010E000C499646E61206B6F6D656E64612073706E
:1010F00072C3B362756A20706F6E6F776E69650038
:1011000057C582C485637A6F6E612064696F6461BC
:08111000206A657374200000E1
:107E0000112484B714BE81FFF0D085E080938100F7
:107E100082E08093C00088E18093C10086E0809377
:107E2000C20080E18093C4008EE0C9D0259A86E02C
:107E300020E33CEF91E0309385002093840096BBD3
:107E4000B09BFECF1D9AA8958150A9F7CC24DD24C4
:107E500088248394B5E0AB2EA1E19A2EF3E0BF2EE7
:107E6000A2D0813461F49FD0082FAFD0023811F036
:107E7000013811F484E001C083E08DD089C08234E0
:107E800011F484E103C0853419F485E0A6D080C0E4
:107E9000853579F488D0E82EFF2485D0082F10E0AE
:107EA000102F00270E291F29000F111F8ED06801E7
:107EB0006FC0863521F484E090D080E0DECF843638
:107EC00009F040C070D06FD0082F6DD080E0C81688
:107ED00080E7D80618F4F601B7BEE895C0E0D1E017
:107EE00062D089930C17E1F7F0E0CF16F0E7DF06D8
:107EF00018F0F601B7BEE89568D007B600FCFDCFD4
:107F0000A601A0E0B1E02C9130E011968C91119780
:107F100090E0982F8827822B932B1296FA010C0160
:107F200087BEE89511244E5F5F4FF1E0A038BF0790
:107F300051F7F601A7BEE89507B600FCFDCF97BE46
:107F4000E89526C08437B1F42ED02DD0F82E2BD052
:107F50003CD0F601EF2C8F010F5F1F4F84911BD097
:107F6000EA94F801C1F70894C11CD11CFA94CF0C13
:107F7000D11C0EC0853739F428D08EE10CD085E9AC
:107F80000AD08FE07ACF813511F488E018D01DD067
:107F900080E101D065CF982F8091C00085FFFCCF94
:107FA0009093C60008958091C00087FFFCCF809118
:107FB000C00084FD01C0A8958091C6000895E0E648
:107FC000F0E098E1908380830895EDDF803219F02E
:107FD00088E0F5DFFFCF84E1DECF1F93182FE3DFCA
:107FE0001150E9F7F2DF1F91089580E0E8DFEE27F6
:047FF000FF270994CA
:027FFE00040479
:00000001FF
