:100000000C945E000C9486000C9486000C94860080
:100010000C9486000C9486000C9486000C94860048
:100020000C9486000C9486000C9486000C94860038
:100030000C9486000C9486000C9486000C94860028
:100040000C94AE030C9486000C947C030C94560321
:100050000C9486000C9486000C9486000C94860008
:100060000C9486000C948600000000080002010039
:100070000003040700000000000000000000000072
:10008000250028002B0000000000240027002A0083
:10009000040404040404040402020202020203032E
:1000A0000303030301020408102040800102040836
:1000B0001020010204081020F803C00511241FBEFF
:1000C000CFEFD8E0DEBFCDBF21E0A6E4B1E001C0B4
:1000D0001D92A63FB207E1F711E0A0E0B1E0E2E136
:1000E000F0E102C005900D92A634B107D9F710E0F7
:1000F000CDE5D0E004C02197FE010E94FB05CC3580
:10010000D107C9F70E9433040C94FC070C9400003B
:1001100090E0FC01EC55FF4F249180579F4FFC016C
:100120008491882399F090E0880F991FFC01EA5789
:10013000FF4FA591B491FC01E458FF4F8591949134
:100140008FB7F894EC91E22BEC938FBF089508954C
:10015000AF92BF92CF92DF92EF92FF920F931F93D5
:10016000CF93DF936C017B018B01040F151FEB0113
:100170005E01AE18BF08C017D10759F06991D601CA
:10018000ED91FC910190F081E02DC6010995892B3C
:1001900079F7C501DF91CF911F910F91FF90EF90FB
:1001A000DF90CF90BF90AF900895CF93DF93FC0185
:1001B00044815581608171818FE491E00E94A800A3
:1001C000EC0142E050E068E171E08FE491E00E94D0
:1001D000A8008C0F9D1FDF91CF910895FC01538DD6
:1001E000448D252F30E0842F90E0821B930B541711
:1001F00010F0CF96089501970895FC01918D828D9E
:10020000981761F0A28DAE0FBF2FB11D5D968C9136
:10021000928D9F5F9F73928F90E008958FEF9FEF75
:1002200008952FB7F89480914B0190914C01A091C3
:100230004D01B0914E012FBF80935701909358010B
:10024000A0935901B0935A018FE491E00E94FD0000
:1002500097FF26C02FB7F89480914B0190914C01E5
:10026000A0914D01B0914E012FBF40915701509187
:1002700058016091590170915A01841B950BA60B8E
:10028000B70B409153015091540160915501709109
:10029000560184179507A607B707B0F28FEF9FEFB7
:1002A0000895FC01918D828D981731F0828DE80FB1
:1002B000F11D858D90E008958FEF9FEF0895FC016B
:1002C000918D228D892F90E0805C9F4F821B910938
:1002D0008F73992708958FE491E00E945F0121E0D8
:1002E000892B09F420E0822F089580E090E0892B8B
:1002F00029F00E946B0181110C9400000895FC010B
:10030000A48DA80FB92FB11DA35ABF4F2C91848D76
:1003100090E001968F739927848FA689B7892C93D3
:10032000A089B1898C91837080648C93938D848D26
:10033000981306C00288F389E02D80818F7D808329
:100340000895EF92FF920F931F93CF93DF93EC01E9
:1003500081E0888F9B8D8C8D98131AC0E889F9896C
:10036000808185FF15C09FB7F894EE89FF8960836F
:10037000E889F98980818370806480839FBF81E0F0
:1003800090E0DF91CF911F910F91FF90EF90089532
:10039000F62E0B8D10E00F5F1F4F0F731127E02E0D
:1003A0008C8D8E110CC00FB607FCFACFE889F98945
:1003B000808185FFF5CFCE010E947F01F1CFEB8DCB
:1003C000EC0FFD2FF11DE35AFF4FF0829FB7F89419
:1003D0000B8FEA89FB8980818062CFCFCF93DF9337
:1003E000EC01888D8823B9F0AA89BB89E889F9894D
:1003F0008C9185FD03C0808186FD0DC00FB607FC82
:10040000F7CF8C9185FFF2CF808185FFEDCFCE01B4
:100410000E947F01E9CFDF91CF91089590E0FC0128
:10042000E859FF4F2491FC01EC55FF4F3491FC013A
:10043000E057FF4FE491EE23C9F0222339F0233037
:1004400001F1A8F4213019F1223029F1F0E0EE0F8A
:10045000FF1FE458FF4FA591B4918FB7F894EC912A
:10046000611126C030953E233C938FBF08952730FD
:10047000A9F02830C9F0243049F7809180008F7DA1
:1004800003C0809180008F7780938000DFCF84B598
:100490008F7784BDDBCF84B58F7DFBCF8091B0009B
:1004A0008F778093B000D2CF8091B0008F7DF9CF4D
:1004B0003E2BDACF3FB7F8948091470190914801E5
:1004C000A0914901B0914A0126B5A89B05C02F3FD4
:1004D00019F00196A11DB11D3FBFBA2FA92F982F6A
:1004E0008827BC01CD01620F711D811D911D42E065
:1004F000660F771F881F991F4A95D1F708958F922D
:100500009F92AF92BF92CF92DF92EF92FF920E94A2
:100510005A024B015C0188EEC82E83E0D82EE12CF4
:10052000F12C0E945A02681979098A099B09683ED0
:10053000734081059105A8F321E0C21AD108E108B2
:10054000F10888EE880E83E0981EA11CB11CC1142E
:10055000D104E104F10429F7FF90EF90DF90CF90F0
:10056000BF90AF909F908F900895CF93DF93EC0151
:1005700088819981009711F00E949D061982188246
:100580001D821C821B821A82DF91CF910895FC018B
:1005900080819181009711F00C949D0608950F932E
:1005A0001F93CF93DF93EC0188819981009759F0D5
:1005B0002A813B812617370730F081E0DF91CF9108
:1005C0001F910F9108958B016F5F7F4F0E94260747
:1005D000009759F0998388831B830A832C813D817E
:1005E000232B59F7FC011082E8CF80E0E7CFEF9290
:1005F000FF920F931F93CF93DF936115710541F421
:1006000080E0DF91CF911F910F91FF90EF900895BF
:1006100041155105B1F07B01EC010C811D81040FE6
:10062000151FB8010E94CF02882351F32881398118
:100630008C819D81B701820F931F0E94F5071D8356
:100640000C8381E0DECFCF93DF93EC0141E050E0FB
:100650006BE171E00E94F702811103C0CE010E949C
:10066000B502CE01DF91CF910895EF92FF920F93E3
:100670001F93CF93DF93EC017B018A01BA010E94A3
:10068000CF0281110BC0CE010E94B502CE01DF91D5
:10069000CF911F910F91FF90EF9008951D830C83D0
:1006A000B701888199810E94F507F0CF1F920F92C0
:1006B0000FB60F9211242F933F934F935F936F9335
:1006C0007F938F939F93AF93BF93EF93FF938FE4A9
:1006D00091E00E947F01FF91EF91BF91AF919F91B7
:1006E0008F917F916F915F914F913F912F910F90DB
:1006F0000FBE0F901F9018951F920F920FB60F927A
:1007000011242F938F939F93EF93FF93E0915F01B9
:10071000F09160018081E0916501F091660182FDB8
:100720001BC09081809168018F5F8F732091690158
:10073000821741F0E0916801F0E0E15BFE4F958F98
:1007400080936801FF91EF919F918F912F910F906E
:100750000FBE0F901F9018958081F4CF1F920F92BB
:100760000FB60F9211242F933F938F939F93AF93C4
:10077000BF9380914B0190914C01A0914D01B0919C
:100780004E013091460123E0230F2D3758F5019695
:10079000A11DB11D2093460180934B0190934C0104
:1007A000A0934D01B0934E01809147019091480173
:1007B000A0914901B0914A010196A11DB11D8093FC
:1007C000470190934801A0934901B0934A01BF911A
:1007D000AF919F918F913F912F910F900FBE0F90EE
:1007E0001F90189526E8230F0296A11DB11DD2CFA8
:1007F000EFE4F1E01382128288EE93E0A0E0B0E033
:1008000084839583A683B7838AE091E09183808374
:1008100085EC90E09587848784EC90E097878687C5
:1008200080EC90E0918B808B81EC90E0938B828BBD
:1008300082EC90E0958B848B86EC90E0978B868B96
:10084000118E128E138E148EECEEF1E01182108256
:10085000138212821582148250E040E06AE171E056
:10086000CF010C943503CF93DF93CDB7DEB7289734
:100870000FB6F894DEBF0FBECDBF789484B582600A
:1008800084BD84B5816084BD85B5826085BD85B534
:10089000816085BD80916E00816080936E001092B2
:1008A000810080918100826080938100809181002D
:1008B00081608093810080918000816080938000BE
:1008C0008091B10084608093B1008091B00081601C
:1008D0008093B00080917A00846080937A00809148
:1008E0007A00826080937A0080917A0081608093A0
:1008F0007A0080917A00806880937A001092C1001B
:10090000E0915F01F091600182E08083E0915B0102
:10091000F0915C011082E0915D01F0915E018FEC3D
:10092000808310926701E0916301F091640186E099
:100930008083E0916101F091620180818061808318
:10094000E0916101F0916201808188608083E09193
:100950006101F0916201808180688083E091610192
:10096000F091620180818F7D808388E00E94880001
:1009700089E00E94880060E088E00E940E0260E04A
:1009800089E00E940E0200E010E08FE491E00E94F6
:100990005F01181619060CF0CEC01A8219821C824B
:1009A0001B821E821D8250E040E06AE171E0CE01B0
:1009B00001960E9435030E94110197FD0FC08A30F5
:1009C000910561F08F83188641E050E0BE01695FB8
:1009D0007F4FCE0101960E94F702EDCF8091EC018E
:1009E0009091ED01009709F4B4C069817A81611595
:1009F000710509F4ACC04091EE015091EF012D81D9
:100A00003E814217530708F4A2C00E94F5078D816A
:100A10009E819093F1018093F0011E821D82CE0190
:100A200001960E94C7028091F0019091F101892BFB
:100A3000F1F16DE171E08091EC019091ED010E9486
:100A4000EC07892BA1F561E088E00E940E021A8272
:100A500019821C821B821E821D8246E150E065E2E3
:100A600071E0CE0101960E9435034091F001509152
:100A7000F1016091EC017091ED01CE0101960E94AF
:100A8000F702811104C0CE0101960E94B502CE0189
:100A900001960E9423030E94D500CE0101960E9478
:100AA000C7020E947F0260E088E00E940E028091EF
:100AB000F0019091F101892BF1F16CE371E08091EB
:100AC000EC019091ED010E94EC07892BA1F561E00A
:100AD00089E00E940E021A8219821C821B821E82E9
:100AE0001D8246E150E065E271E0CE0101960E9470
:100AF00035034091F0015091F1016091EC0170914A
:100B0000ED01CE0101960E94F702811104C0CE01D1
:100B100001960E94B502CE0101960E9423030E9415
:100B2000D500CE0101960E94C7020E947F0260E0BC
:100B300089E00E940E020115110509F426CF0E94DA
:100B40006B01882309F421CF0E9400001ECF0E9470
:100B50009D0689819A819093ED018093EC018B81B0
:100B60009C819093EF018093EE018D819E81909303
:100B7000F1018093F0011A8219821C821B824DCFF1
:100B80008CEE91E00C94C7022F923F924F925F92AD
:100B90006F927F928F929F92AF92BF92CF92DF928D
:100BA000EF92FF920F931F93CF93DF93CDB7DEB7F2
:100BB000CA1BDB0B0FB6F894DEBF0FBECDBF099486
:100BC0002A88398848885F846E847D848C849B84DD
:100BD000AA84B984C884DF80EE80FD800C811B81EB
:100BE000AA81B981CE0FD11D0FB6F894DEBF0FBE1A
:100BF000CDBFED010895EE0FFF1F0590F491E02D9C
:100C000009940F931F93CF93DF938230910510F4D3
:100C100082E090E0E091F401F091F50130E020E015
:100C2000B0E0A0E0309799F42115310509F44AC0ED
:100C3000281B390B24303105D8F58A819B81611539
:100C4000710589F1FB0193838283FE0111C040810C
:100C500051810281138148175907E0F0481759075D
:100C600099F4109761F012960C93129713961C93B7
:100C70003296CF01DF91CF911F910F91089500938C
:100C8000F4011093F501F4CF2115310551F042170D
:100C9000530738F0A901DB019A01BD01DF01F8011A
:100CA000C1CFEF01F9CF9093F5018093F401CDCF3F
:100CB000FE01E20FF31F8193919322503109398392
:100CC0002883D7CF2091F2013091F301232B41F4F7
:100CD00020910201309103013093F3012093F2013E
:100CE00020910001309101012115310541F42DB70A
:100CF0003EB74091040150910501241B350BE09152
:100D0000F201F091F301E217F307A0F42E1B3F0B61
:100D10002817390778F0AC014E5F5F4F241735076D
:100D200048F04E0F5F1F5093F3014093F2018193FF
:100D300091939FCFF0E0E0E09CCFCF93DF930097BB
:100D4000E9F0FC01329713821282A091F401B09174
:100D5000F501ED0130E020E01097A1F42081318110
:100D6000820F931F2091F2013091F3012817390768
:100D700009F061C0F093F301E093F201DF91CF91AC
:100D80000895EA01CE17DF07E8F54A815B819E01ED
:100D900041155105B1F7E901FB83EA834991599166
:100DA000C40FD51FEC17FD0761F480819181029675
:100DB000840F951FE90199838883828193819B83A6
:100DC0008A83F0E0E0E012968D919C911397009752
:100DD000B9F52D913C911197CD010296820F931F89
:100DE0002091F2013091F3012817390739F6309735
:100DF00051F51092F5011092F401B093F301A09314
:100E0000F201BCCFD383C28340815181840F951FEF
:100E1000C817D90761F44E5F5F4F88819981480FE9
:100E2000591F518340838A819B819383828321153B
:100E3000310509F0B0CFF093F501E093F4019ECFB6
:100E4000FD01DC01C0CF13821282D7CFB0E0A0E059
:100E5000ECE2F7E00C94C6058C01009751F4CB014D
:100E60000E9401068C01C801CDB7DEB7E0E10C9409
:100E7000E205FC01E60FF71F9C0122503109E21741
:100E8000F30708F49DC0D901CD91DC911197C617E5
:100E9000D70798F0C530D10530F3CE0104978617F7
:100EA000970708F3C61BD70B2297C193D1936D9375
:100EB0007C93CF010E949D06D6CF5B01AC1ABD0A80
:100EC0004C018C0E9D1EA091F401B091F501512CA6
:100ED000412CF12CE12C109731F58091F201909189
:100EE000F3018815990509F05CC04616570608F00D
:100EF00058C08091000190910101009741F48DB795
:100F00009EB74091040150910501841B950BE81791
:100F1000F90708F055C0F093F301E093F201F901ED
:100F200071836083A0CF8D919C91119712966C90E4
:100F3000129713967C901397A815B90559F56C0173
:100F400042E0C40ED11CCA14DB0420F1AC014A19E2
:100F50005B09DA011296159780F0628273825183E1
:100F60004083D9016D937C93E114F10471F0D701B2
:100F70001396FC93EE93129776CF22968C0F9D1FBB
:100F8000F90191838083F301EFCFF093F501E093B2
:100F9000F40169CF4816590608F42C017D01D301EC
:100FA0009ACFCB010E9401067C01009749F0AE0167
:100FB000B8010E94E307C8010E949D06870153CF34
:100FC00010E000E050CFFB01DC0102C001900D9267
:100FD00041505040D8F70895FB01DC018D910190FC
:100FE00080190110D9F3990B0895FB01DC010190E0
:100FF0000D920020E1F7089510E0CDE5D0E004C0A7
:10100000FE010E94FB052196CE35D107C9F7F89461
:02101000FFCF10
:101012000000F601800000000000A101A800EE001F
:10102200EE015F01FD0051010D0A002E007A696593
:101032006C6F6E610057C582C485637A6F6E6120E2
:1010420064696F6461206A6573742000637A6572F3
:06105200776F6E610000E3
:00000001FF
